{
 "cells": [
  {
   "cell_type": "code",
   "execution_count": 1,
   "metadata": {
    "code_folding": [
     0
    ]
   },
   "outputs": [],
   "source": [
    "# Import libraries\n",
    "from functions import *\n",
    "\n",
    "import json\n",
    "import os\n",
    "import subprocess\n",
    "import time"
   ]
  },
  {
   "cell_type": "markdown",
   "metadata": {},
   "source": [
    "# Creating a P2WSH multisig transaction"
   ]
  },
  {
   "cell_type": "markdown",
   "metadata": {},
   "source": [
    "In this section we'll create a P2WSH transaction from scratch in python. We'll go through each part of the transaction, how it's constructed, signed, and we'll test it using bitcoin core in regtest mode.\n",
    "\n",
    "## Reading\n",
    "- Andreas Antonopoulos - Mastering Bitcoin Chapter 7\n",
    "- Jimmy Song - Programming Bitcoin Chapters 13"
   ]
  },
  {
   "cell_type": "markdown",
   "metadata": {},
   "source": [
    "## Setup \n",
    "\n",
    "### Requirements\n",
    "For this exercise we'll need Bitcoin Core (v22 or higher) with the application data is stored in \n",
    "```$HOME/Library/Application Support/Bitcoin```.\n",
    "\n",
    "### Setup bitcoind in regtest\n",
    "Start up regtest mode, delete any regtest network history so we are starting from scratch. Create a wallet so that we can fund our first output using the `sendtoaddress` command. Mine 101 blocks so that the mining reward first block will have sufficient block maturity (100 blocks) to spend from."
   ]
  },
  {
   "cell_type": "code",
   "execution_count": 2,
   "metadata": {
    "code_folding": [
     0
    ]
   },
   "outputs": [],
   "source": [
    "# start up bitcoind in regtest and mine 101 blocks\n",
    "\n",
    "# Make sure bitcoind is not already running\n",
    "os.system(\"bitcoin-cli -regtest stop\")\n",
    "time.sleep(2) \n",
    "\n",
    "# Delete any previous files to restart regtest\n",
    "os.system(\"rm -rfv $HOME/Library/Application\\ Support/Bitcoin/regtest/\")\n",
    "\n",
    "# Start up bitcoind in regtest mode\n",
    "os.system(\"bitcoind -regtest -daemon -fallbackfee=0.0002\")\n",
    "time.sleep(1.5)\n",
    "\n",
    "# Create a new wallet and address that we can mine blocks so that we can fund our transactions\n",
    "wallet = subprocess.getoutput(\"bitcoin-cli -regtest createwallet mywallet\")\n",
    "address = subprocess.getoutput(\"bitcoin-cli -regtest getnewaddress\")\n",
    "\n",
    "# Generate 101 blocks so that the first block's block reward reaches maturity\n",
    "result = subprocess.getoutput(\"bitcoin-cli -regtest generatetoaddress 101 {addr}\".format(addr=address))\n",
    "\n",
    "# Check that we were able to mine 101 blocks\n",
    "blockcount = subprocess.getoutput(\"bitcoin-cli -regtest getblockcount\")\n",
    "assert(blockcount == \"101\")"
   ]
  },
  {
   "cell_type": "markdown",
   "metadata": {},
   "source": [
    "### Create a P2WSH multisig UTXO\n",
    "\n",
    "In order to create a transaction spending from a P2WSH multisig UTXO, we'll first need to create the UTXO that is locked with a multisig script. For this example we'll use a 2 of 2 multisig script. Note that this type of output will be identical to funding transactions used for layer 2 lightning channels. \n",
    "\n",
    "We'll create a two pubkeys and manually conscruct the multisig script. Then we'll fund it using the bitcoind wallet created in the setup step."
   ]
  },
  {
   "cell_type": "markdown",
   "metadata": {},
   "source": [
    "#### Create a multisig redeemScript \n",
    "For more on this step, review the 'Bitcoin Script' notebook."
   ]
  },
  {
   "cell_type": "code",
   "execution_count": 3,
   "metadata": {},
   "outputs": [
    {
     "name": "stdout",
     "output_type": "stream",
     "text": [
      "5221034f355bdcb7cc0af728ef3cceb9615d90684bb5b2ca5f859ab0f0b704075871aa2102466d7fcae563e5cb09a0d1870bb580344804617879a14949cf22285f1bae3f2752ae\n"
     ]
    }
   ],
   "source": [
    "privkey1 = bytes.fromhex(\"1111111111111111111111111111111111111111111111111111111111111111\")\n",
    "pubkey1 = privkey_to_pubkey(privkey1)\n",
    "\n",
    "privkey2 = bytes.fromhex(\"2222222222222222222222222222222222222222222222222222222222222222\")\n",
    "pubkey2 = privkey_to_pubkey(privkey2)\n",
    "\n",
    "# \"21\" is the length of a 33 byte (compressed) pubkey in hex notation\n",
    "redeemScript = bytes.fromhex(\n",
    "    \"52\" \n",
    "    + \"21\"\n",
    "    + pubkey1.hex()\n",
    "    + \"21\"\n",
    "    + pubkey2.hex()\n",
    "    + \"52\"\n",
    "    + \"ae\")\n",
    "\n",
    "print(redeemScript.hex())"
   ]
  },
  {
   "cell_type": "markdown",
   "metadata": {},
   "source": [
    "#### Convert the redeemScript to a P2WSH address\n",
    "\n",
    "For more on this step, review the 'Addresses' notebook."
   ]
  },
  {
   "cell_type": "code",
   "execution_count": 4,
   "metadata": {},
   "outputs": [
    {
     "name": "stdout",
     "output_type": "stream",
     "text": [
      "bcrt1qpqn5k3h89nfv6cnrkvk3rt3g0zfhqfz23cxkgapsenj29ety5ckqyrn25s\n"
     ]
    }
   ],
   "source": [
    "address_to_spend = script_to_p2wsh(redeemScript, \"regtest\")\n",
    "print(address_to_spend)"
   ]
  },
  {
   "cell_type": "markdown",
   "metadata": {},
   "source": [
    "#### Fund the 'sender' with 2.001 btc (0.001 btc is for the next tx fee)"
   ]
  },
  {
   "cell_type": "code",
   "execution_count": 5,
   "metadata": {},
   "outputs": [
    {
     "name": "stdout",
     "output_type": "stream",
     "text": [
      "f46bbfbd025c36cc5fae08bb3b318417976dd91aa3635d1aa6814c0236ef0826\n"
     ]
    }
   ],
   "source": [
    "txid_to_spend = subprocess.getoutput(\"bitcoin-cli -regtest sendtoaddress \" + address_to_spend + \" 2.001\")\n",
    "print(txid_to_spend)"
   ]
  },
  {
   "cell_type": "markdown",
   "metadata": {},
   "source": [
    "#### Find which output index the btc was sent to\n",
    "Since we only sent 2.001 btc of the coinbase transaction (50 btc) to our address, bitcoind creates a change output to send the rest of the btc. By looking at the outputs we can see which is the change output and which was sent to our address. To do this in python we can do the following:"
   ]
  },
  {
   "cell_type": "code",
   "execution_count": 6,
   "metadata": {
    "code_folding": []
   },
   "outputs": [
    {
     "name": "stdout",
     "output_type": "stream",
     "text": [
      "index to spend from: 0\n"
     ]
    }
   ],
   "source": [
    "# Decode transaction to find which index to spend from\n",
    "\n",
    "raw_tx = subprocess.getoutput(\"bitcoin-cli -regtest getrawtransaction \" + txid_to_spend)\n",
    "decoded = subprocess.getoutput(\"bitcoin-cli -regtest decoderawtransaction \" + raw_tx)\n",
    "# print(decoded)\n",
    "\n",
    "d = json.loads(decoded)\n",
    "if d[\"vout\"][0][\"scriptPubKey\"][\"address\"] == address_to_spend:\n",
    "    index_to_spend = 0\n",
    "elif d[\"vout\"][1][\"scriptPubKey\"][\"address\"] == address_to_spend:\n",
    "    index_to_spend = 1\n",
    "else:\n",
    "    raise Exception(\"couldn't find output\")\n",
    "print(\"index to spend from: \" + str(index_to_spend))"
   ]
  },
  {
   "cell_type": "markdown",
   "metadata": {},
   "source": [
    "#### Mine a block so that the funding tx gets confirmed"
   ]
  },
  {
   "cell_type": "code",
   "execution_count": 7,
   "metadata": {},
   "outputs": [],
   "source": [
    "subprocess.getoutput(\"bitcoin-cli -regtest generatetoaddress 1 {addr}\".format(addr=address));"
   ]
  },
  {
   "cell_type": "markdown",
   "metadata": {},
   "source": [
    "## Spending a P2WSH (multisig) UTXO\n",
    "\n",
    "Now that we have some funds locked up in a P2WSH multisig utxo, we can create a transaction spending from it. Let's say we want to send 1.5 btc to the address `mkxwE7XtVYJKepoD2hbHnDjftuMQ1k6deE`.\n",
    "\n",
    "From our previous examples we know this corresponds to a scriptPubkey of `76a9143bc28d6d92d9073fb5e3adf481795eaf446bceed88ac`, so we will skip the decoding step. For more on decoding base58 addresses, refer to the 'Addresses' chapter."
   ]
  },
  {
   "cell_type": "code",
   "execution_count": 8,
   "metadata": {},
   "outputs": [],
   "source": [
    "receiver_spk = bytes.fromhex(\"76a9143bc28d6d92d9073fb5e3adf481795eaf446bceed88ac\")"
   ]
  },
  {
   "cell_type": "markdown",
   "metadata": {},
   "source": [
    "### Create an unsigned P2WSH transaction\n",
    "\n",
    "The first thing we'll do is define the inputs and outputs of our transaction."
   ]
  },
  {
   "cell_type": "code",
   "execution_count": 9,
   "metadata": {},
   "outputs": [],
   "source": [
    "# Note we have already defined a few variables we need to create our transaction:\n",
    "# The input utxo txid and index: `txid_to_spend` and `index_to_spend`\n",
    "# The input private key and public key: `privkey1`, `pubkey1`, ...\n",
    "\n",
    "# Set our outputs\n",
    "# Create a new pubkey to use as a change output.\n",
    "change_privkey = bytes.fromhex(\"4444444444444444444444444444444444444444444444444444444444444444\")\n",
    "change_pubkey = privkey_to_pubkey(change_privkey)\n",
    "\n",
    "# Determine our output scriptPubkeys and amounts (in satoshis)\n",
    "output1_value_sat = int(float(\"1.5\") * 100000000)\n",
    "output1_spk = receiver_spk\n",
    "output2_value_sat = int(float(\"0.5\") * 100000000)\n",
    "output2_spk = bytes.fromhex(\"76a914\") + hash160(change_pubkey) + bytes.fromhex(\"88ac\")"
   ]
  },
  {
   "cell_type": "markdown",
   "metadata": {},
   "source": [
    "Now that we've defined everything we need, we can fill in the fields we need to create our unsigned transaction. What makes a transaction 'unsigned' is that the witness field is empty. This first step is necessary as the signature will cover the whole transaction (using SIGHASH_ALL). In a later chapter we will cover other sighash types and how they are signed."
   ]
  },
  {
   "cell_type": "code",
   "execution_count": 10,
   "metadata": {},
   "outputs": [
    {
     "name": "stdout",
     "output_type": "stream",
     "text": [
      "unsigned_tx:  02000000012608ef36024c81a61a5d63a31ad96d971784313bbb08ae5fcc365c02bdbf6bf40000000000ffffffff0280d1f008000000001976a9143bc28d6d92d9073fb5e3adf481795eaf446bceed88ac80f0fa02000000001976a914cc1b07838e387deacd0e5232e1e8b49f4c29e48488ac00000000\n"
     ]
    }
   ],
   "source": [
    "# VERSION\n",
    "# version '2' indicates that we may use relative timelocks (BIP68)\n",
    "version = bytes.fromhex(\"0200 0000\")\n",
    "\n",
    "# MARKER (new to segwit)\n",
    "marker = bytes.fromhex(\"00\")\n",
    "\n",
    "# FLAG (new to segwit)\n",
    "flag = bytes.fromhex(\"01\")\n",
    "\n",
    "# INPUTS\n",
    "# We have just 1 input\n",
    "input_count = bytes.fromhex(\"01\")\n",
    "\n",
    "# Convert txid and index to bytes (little endian)\n",
    "txid = (bytes.fromhex(txid_to_spend))[::-1]\n",
    "index = index_to_spend.to_bytes(4, byteorder=\"little\", signed=False)\n",
    "\n",
    "# For the unsigned transaction we use an empty scriptSig\n",
    "scriptsig = bytes.fromhex(\"\")\n",
    "\n",
    "# use 0xffffffff unless you are using OP_CHECKSEQUENCEVERIFY, locktime, or rbf\n",
    "sequence = bytes.fromhex(\"ffff ffff\")\n",
    "\n",
    "inputs = (\n",
    "    txid\n",
    "    + index\n",
    "    + varint_len(scriptsig)\n",
    "    + scriptsig\n",
    "    + sequence\n",
    ")\n",
    "\n",
    "# OUTPUTS\n",
    "# 0x02 for out two outputs\n",
    "output_count = bytes.fromhex(\"02\")\n",
    "\n",
    "# OUTPUT 1 \n",
    "output1_value = output1_value_sat.to_bytes(8, byteorder=\"little\", signed=True)\n",
    "# 'output1_spk' already defined at the start of the script\n",
    "\n",
    "# OUTPUT 2\n",
    "output2_value = output2_value_sat.to_bytes(8, byteorder=\"little\", signed=True)\n",
    "# 'output2_spk' already defined at the start of the script\n",
    "\n",
    "outputs = (\n",
    "    output1_value\n",
    "    + pushbytes(output1_spk)\n",
    "    + output2_value\n",
    "    + pushbytes(output2_spk)\n",
    ")\n",
    "\n",
    "# LOCKTIME\n",
    "locktime = bytes.fromhex(\"0000 0000\")\n",
    "\n",
    "unsigned_tx = (\n",
    "    version\n",
    "    + input_count\n",
    "    + inputs\n",
    "    + output_count\n",
    "    + outputs\n",
    "    + locktime\n",
    ")\n",
    "print(\"unsigned_tx: \", unsigned_tx.hex())"
   ]
  },
  {
   "cell_type": "markdown",
   "metadata": {},
   "source": [
    "We can decode this raw transaction to inspect it and see that it has all the information we need apart from the segwit fields (marker, flag, witness)."
   ]
  },
  {
   "cell_type": "code",
   "execution_count": 11,
   "metadata": {},
   "outputs": [
    {
     "name": "stdout",
     "output_type": "stream",
     "text": [
      "{\n",
      "  \"txid\": \"ae2771e3413de6c9a54190288228e68cc925811235bee6d06a6b278eeb4dc8ad\",\n",
      "  \"hash\": \"ae2771e3413de6c9a54190288228e68cc925811235bee6d06a6b278eeb4dc8ad\",\n",
      "  \"version\": 2,\n",
      "  \"size\": 119,\n",
      "  \"vsize\": 119,\n",
      "  \"weight\": 476,\n",
      "  \"locktime\": 0,\n",
      "  \"vin\": [\n",
      "    {\n",
      "      \"txid\": \"f46bbfbd025c36cc5fae08bb3b318417976dd91aa3635d1aa6814c0236ef0826\",\n",
      "      \"vout\": 0,\n",
      "      \"scriptSig\": {\n",
      "        \"asm\": \"\",\n",
      "        \"hex\": \"\"\n",
      "      },\n",
      "      \"sequence\": 4294967295\n",
      "    }\n",
      "  ],\n",
      "  \"vout\": [\n",
      "    {\n",
      "      \"value\": 1.50000000,\n",
      "      \"n\": 0,\n",
      "      \"scriptPubKey\": {\n",
      "        \"asm\": \"OP_DUP OP_HASH160 3bc28d6d92d9073fb5e3adf481795eaf446bceed OP_EQUALVERIFY OP_CHECKSIG\",\n",
      "        \"desc\": \"addr(mkxwE7XtVYJKepoD2hbHnDjftuMQ1k6deE)#xlnzfr97\",\n",
      "        \"hex\": \"76a9143bc28d6d92d9073fb5e3adf481795eaf446bceed88ac\",\n",
      "        \"address\": \"mkxwE7XtVYJKepoD2hbHnDjftuMQ1k6deE\",\n",
      "        \"type\": \"pubkeyhash\"\n",
      "      }\n",
      "    },\n",
      "    {\n",
      "      \"value\": 0.50000000,\n",
      "      \"n\": 1,\n",
      "      \"scriptPubKey\": {\n",
      "        \"asm\": \"OP_DUP OP_HASH160 cc1b07838e387deacd0e5232e1e8b49f4c29e484 OP_EQUALVERIFY OP_CHECKSIG\",\n",
      "        \"desc\": \"addr(mz8AXDhDMhvLs7kxwfQxvcH5GoVH6AdARZ)#6f8xcf93\",\n",
      "        \"hex\": \"76a914cc1b07838e387deacd0e5232e1e8b49f4c29e48488ac\",\n",
      "        \"address\": \"mz8AXDhDMhvLs7kxwfQxvcH5GoVH6AdARZ\",\n",
      "        \"type\": \"pubkeyhash\"\n",
      "      }\n",
      "    }\n",
      "  ]\n",
      "}\n"
     ]
    }
   ],
   "source": [
    "decoded = subprocess.getoutput(\"bitcoin-cli -regtest decoderawtransaction \" + unsigned_tx.hex())\n",
    "print(decoded)"
   ]
  },
  {
   "cell_type": "markdown",
   "metadata": {},
   "source": [
    "Segwit transactions have a new signing scheme described in [BIP143](https://github.com/bitcoin/bips/blob/master/bip-0143.mediawiki)"
   ]
  },
  {
   "cell_type": "code",
   "execution_count": 12,
   "metadata": {},
   "outputs": [
    {
     "name": "stdout",
     "output_type": "stream",
     "text": [
      "020000007367376725b71413899341be58b2832ebd606d41a55db982f19eeaecce9324913bb13029ce7b1f559ef5e747fcac439f1455a2ec7c5f09b72290795e706650442608ef36024c81a61a5d63a31ad96d971784313bbb08ae5fcc365c02bdbf6bf400000000475221034f355bdcb7cc0af728ef3cceb9615d90684bb5b2ca5f859ab0f0b704075871aa2102466d7fcae563e5cb09a0d1870bb580344804617879a14949cf22285f1bae3f2752aea048ed0b00000000ffffffff7c27b92041484c01942ac85d0fe5ff31e92d1a54e1618e190ef3f316c4799ecf0000000001000000\n"
     ]
    }
   ],
   "source": [
    "scriptcode = redeemScript\n",
    "\n",
    "input_amount_sat = int(2.001 * 100_000_000)\n",
    "value = input_amount_sat.to_bytes(8, byteorder=\"little\", signed=False)\n",
    "\n",
    "hashPrevOuts = hash256(txid + index)\n",
    "hashSequence = hash256(sequence)\n",
    "hashOutputs = hash256(outputs)\n",
    "sighash_type = bytes.fromhex(\"0100 0000\") # SIGHASH_ALL\n",
    "\n",
    "tx_digest_preimage = (\n",
    "    version\n",
    "    + hashPrevOuts\n",
    "    + hashSequence\n",
    "    + txid\n",
    "    + index\n",
    "    + varint_len(scriptcode)\n",
    "    + scriptcode\n",
    "    + value\n",
    "    + sequence\n",
    "    + hashOutputs\n",
    "    + locktime\n",
    "    + sighash_type\n",
    ")\n",
    "print(tx_digest_preimage.hex())"
   ]
  },
  {
   "cell_type": "markdown",
   "metadata": {},
   "source": [
    "Now we are ready to hash this transaction and produce two ecdsa signatures on it. \n",
    "\n",
    "Before hashing the transaction with hash256, we append the sighash flag. In this example we'll use the most commonly used SIGHASH_ALL flag, meaning the signature guarantees the input will only be used in a transaction with these exact inputs and outputs.\n",
    "\n",
    "Note that when we append the sighash flag to the transaction, we use 4 bytes, however when we append the sighash flag to the end of the signature itself we only use 1 byte."
   ]
  },
  {
   "cell_type": "code",
   "execution_count": 13,
   "metadata": {
    "code_folding": []
   },
   "outputs": [
    {
     "name": "stdout",
     "output_type": "stream",
     "text": [
      "signed transaction:  020000000001012608ef36024c81a61a5d63a31ad96d971784313bbb08ae5fcc365c02bdbf6bf40000000000ffffffff0280d1f008000000001976a9143bc28d6d92d9073fb5e3adf481795eaf446bceed88ac80f0fa02000000001976a914cc1b07838e387deacd0e5232e1e8b49f4c29e48488ac0400483045022100b322c3a16ece76ae0d846a42cc8beab119ba7dd522f6563005ca200bccfb2e1c0220261a56a392e510d7a8bf9a7abd1dba7a1ece8a1073bea80cdda974557d6c50eb01473044022055281a875e70b96e694ecaffd8c446d90ffb4a59b1dd59000b00a8db84918eb902207229da03cfa139c2ecccaa85ce91edf5860ecce47ede5a806f6bb0c92ae0339d01475221034f355bdcb7cc0af728ef3cceb9615d90684bb5b2ca5f859ab0f0b704075871aa2102466d7fcae563e5cb09a0d1870bb580344804617879a14949cf22285f1bae3f2752ae00000000\n"
     ]
    }
   ],
   "source": [
    "# Create sigHash to be signed\n",
    "sighash = hash256(tx_digest_preimage)\n",
    "\n",
    "# Sign the sigHash with the input privkey1\n",
    "signing_key1 = ecdsa.SigningKey.from_string(privkey1, curve=ecdsa.SECP256k1) \n",
    "signature1 = signing_key1.sign_digest(sighash, sigencode=ecdsa.util.sigencode_der_canonize)\n",
    "\n",
    "# Append SIGHASH_ALL to the signature\n",
    "signature1 = signature1 + bytes.fromhex(\"01\")\n",
    "\n",
    "# Sign the sigHash with the input privkey2\n",
    "signing_key2 = ecdsa.SigningKey.from_string(privkey2, curve=ecdsa.SECP256k1) \n",
    "signature2 = signing_key2.sign_digest(sighash, sigencode=ecdsa.util.sigencode_der_canonize)\n",
    "\n",
    "# Append SIGHASH_ALL to the signature\n",
    "signature2 = signature2 + bytes.fromhex(\"01\")\n",
    "\n",
    "# Combine the signatures into the final scriptSig\n",
    "witness = (\n",
    "    # indicate the number of stack items\n",
    "    bytes.fromhex(\"04\")\n",
    "    + bytes.fromhex(\"00\") # Add an extra \"00\" for the CheckMultiSig bug\n",
    "    + pushbytes(signature1)\n",
    "    + pushbytes(signature2)\n",
    "    + pushbytes(redeemScript)\n",
    ")\n",
    "\n",
    "# the final signed transaction\n",
    "signed_tx = (\n",
    "    version\n",
    "    + marker\n",
    "    + flag\n",
    "    + input_count\n",
    "    + inputs\n",
    "    + output_count\n",
    "    + outputs\n",
    "    + witness\n",
    "    + locktime\n",
    ")\n",
    "\n",
    "print(\"signed transaction: \",signed_tx.hex())"
   ]
  },
  {
   "cell_type": "markdown",
   "metadata": {},
   "source": [
    "### Broadcase the transaction (on regtest mode)\n",
    "If we get back a txid (32 byte hash), then it means the tx was successfully broadcast! If we just want to see if the transaction would have been accepted, but without broadcasting it, we can use the `testmempoolaccept` command (commented out)."
   ]
  },
  {
   "cell_type": "code",
   "execution_count": 14,
   "metadata": {},
   "outputs": [
    {
     "name": "stdout",
     "output_type": "stream",
     "text": [
      "[\n",
      "  {\n",
      "    \"txid\": \"ae2771e3413de6c9a54190288228e68cc925811235bee6d06a6b278eeb4dc8ad\",\n",
      "    \"wtxid\": \"617ba6449b79b64d6e797748a92c0e380634c3bcf4a4a3aef70e1b600cdbd804\",\n",
      "    \"allowed\": true,\n",
      "    \"vsize\": 175,\n",
      "    \"fees\": {\n",
      "      \"base\": 0.00100000\n",
      "    }\n",
      "  }\n",
      "]\n"
     ]
    }
   ],
   "source": [
    "# new_tx_txid = subprocess.getoutput(\"bitcoin-cli -regtest sendrawtransaction \" + signed_tx.hex())\n",
    "new_tx_txid = subprocess.getoutput(\"bitcoin-cli -regtest testmempoolaccept \" + \"'[\\\"\" +  signed_tx.hex()+ \"\\\"]'\")\n",
    "\n",
    "print(new_tx_txid)"
   ]
  },
  {
   "cell_type": "code",
   "execution_count": 15,
   "metadata": {},
   "outputs": [
    {
     "name": "stdout",
     "output_type": "stream",
     "text": [
      "{\n",
      "  \"txid\": \"ae2771e3413de6c9a54190288228e68cc925811235bee6d06a6b278eeb4dc8ad\",\n",
      "  \"hash\": \"617ba6449b79b64d6e797748a92c0e380634c3bcf4a4a3aef70e1b600cdbd804\",\n",
      "  \"version\": 2,\n",
      "  \"size\": 340,\n",
      "  \"vsize\": 175,\n",
      "  \"weight\": 697,\n",
      "  \"locktime\": 0,\n",
      "  \"vin\": [\n",
      "    {\n",
      "      \"txid\": \"f46bbfbd025c36cc5fae08bb3b318417976dd91aa3635d1aa6814c0236ef0826\",\n",
      "      \"vout\": 0,\n",
      "      \"scriptSig\": {\n",
      "        \"asm\": \"\",\n",
      "        \"hex\": \"\"\n",
      "      },\n",
      "      \"txinwitness\": [\n",
      "        \"\",\n",
      "        \"3045022100b322c3a16ece76ae0d846a42cc8beab119ba7dd522f6563005ca200bccfb2e1c0220261a56a392e510d7a8bf9a7abd1dba7a1ece8a1073bea80cdda974557d6c50eb01\",\n",
      "        \"3044022055281a875e70b96e694ecaffd8c446d90ffb4a59b1dd59000b00a8db84918eb902207229da03cfa139c2ecccaa85ce91edf5860ecce47ede5a806f6bb0c92ae0339d01\",\n",
      "        \"5221034f355bdcb7cc0af728ef3cceb9615d90684bb5b2ca5f859ab0f0b704075871aa2102466d7fcae563e5cb09a0d1870bb580344804617879a14949cf22285f1bae3f2752ae\"\n",
      "      ],\n",
      "      \"sequence\": 4294967295\n",
      "    }\n",
      "  ],\n",
      "  \"vout\": [\n",
      "    {\n",
      "      \"value\": 1.50000000,\n",
      "      \"n\": 0,\n",
      "      \"scriptPubKey\": {\n",
      "        \"asm\": \"OP_DUP OP_HASH160 3bc28d6d92d9073fb5e3adf481795eaf446bceed OP_EQUALVERIFY OP_CHECKSIG\",\n",
      "        \"desc\": \"addr(mkxwE7XtVYJKepoD2hbHnDjftuMQ1k6deE)#xlnzfr97\",\n",
      "        \"hex\": \"76a9143bc28d6d92d9073fb5e3adf481795eaf446bceed88ac\",\n",
      "        \"address\": \"mkxwE7XtVYJKepoD2hbHnDjftuMQ1k6deE\",\n",
      "        \"type\": \"pubkeyhash\"\n",
      "      }\n",
      "    },\n",
      "    {\n",
      "      \"value\": 0.50000000,\n",
      "      \"n\": 1,\n",
      "      \"scriptPubKey\": {\n",
      "        \"asm\": \"OP_DUP OP_HASH160 cc1b07838e387deacd0e5232e1e8b49f4c29e484 OP_EQUALVERIFY OP_CHECKSIG\",\n",
      "        \"desc\": \"addr(mz8AXDhDMhvLs7kxwfQxvcH5GoVH6AdARZ)#6f8xcf93\",\n",
      "        \"hex\": \"76a914cc1b07838e387deacd0e5232e1e8b49f4c29e48488ac\",\n",
      "        \"address\": \"mz8AXDhDMhvLs7kxwfQxvcH5GoVH6AdARZ\",\n",
      "        \"type\": \"pubkeyhash\"\n",
      "      }\n",
      "    }\n",
      "  ]\n",
      "}\n"
     ]
    }
   ],
   "source": [
    "decoded = subprocess.getoutput(\"bitcoin-cli -regtest decoderawtransaction \" + signed_tx.hex())\n",
    "print(decoded)"
   ]
  },
  {
   "cell_type": "markdown",
   "metadata": {},
   "source": [
    "## Quiz\n"
   ]
  },
  {
   "cell_type": "markdown",
   "metadata": {},
   "source": [
    "## Answers\n"
   ]
  },
  {
   "cell_type": "markdown",
   "metadata": {},
   "source": [
    "## Exercise\n",
    "\n"
   ]
  },
  {
   "cell_type": "code",
   "execution_count": null,
   "metadata": {},
   "outputs": [],
   "source": []
  }
 ],
 "metadata": {
  "kernelspec": {
   "display_name": "Python 3",
   "language": "python",
   "name": "python3"
  },
  "language_info": {
   "codemirror_mode": {
    "name": "ipython",
    "version": 3
   },
   "file_extension": ".py",
   "mimetype": "text/x-python",
   "name": "python",
   "nbconvert_exporter": "python",
   "pygments_lexer": "ipython3",
   "version": "3.7.0"
  }
 },
 "nbformat": 4,
 "nbformat_minor": 2
}
